{
  "_format": "hh-sol-artifact-1",
  "contractName": "CoffeePortal",
  "sourceName": "contracts/Coffee.sol",
  "abi": [
    {
      "inputs": [],
      "stateMutability": "payable",
      "type": "constructor"
    },
    {
      "anonymous": false,
      "inputs": [
        {
          "indexed": true,
          "internalType": "address",
          "name": "from",
          "type": "address"
        },
        {
          "indexed": false,
          "internalType": "string",
          "name": "message",
          "type": "string"
        },
        {
          "indexed": false,
          "internalType": "uint256",
          "name": "timestamp",
          "type": "uint256"
        },
        {
          "indexed": false,
          "internalType": "string",
          "name": "name",
          "type": "string"
        }
      ],
      "name": "NewCoffee",
      "type": "event"
    },
    {
      "inputs": [
        {
          "internalType": "string",
          "name": "_message",
          "type": "string"
        },
        {
          "internalType": "string",
          "name": "_name",
          "type": "string"
        },
        {
          "internalType": "uint256",
          "name": "_amount",
          "type": "uint256"
        }
      ],
      "name": "buyCoffee",
      "outputs": [],
      "stateMutability": "payable",
      "type": "function"
    },
    {
      "inputs": [],
      "name": "getAllCoffee",
      "outputs": [
        {
          "components": [
            {
              "internalType": "address",
              "name": "sender",
              "type": "address"
            },
            {
              "internalType": "string",
              "name": "message",
              "type": "string"
            },
            {
              "internalType": "uint256",
              "name": "timestamp",
              "type": "uint256"
            },
            {
              "internalType": "string",
              "name": "name",
              "type": "string"
            }
          ],
          "internalType": "struct CoffeePortal.Coffee[]",
          "name": "",
          "type": "tuple[]"
        }
      ],
      "stateMutability": "view",
      "type": "function"
    },
    {
      "inputs": [],
      "name": "getTotalCoffee",
      "outputs": [
        {
          "internalType": "uint256",
          "name": "",
          "type": "uint256"
        }
      ],
      "stateMutability": "view",
      "type": "function"
    },
    {
      "inputs": [],
      "name": "owner",
      "outputs": [
        {
          "internalType": "address payable",
          "name": "",
          "type": "address"
        }
      ],
      "stateMutability": "view",
      "type": "function"
    }
  ],
  "bytecode": "0x60806040526200004f6040518060400160405280602081526020017f596f20596f2120496973206120536d61727420436f6e747261637420686568658152506200009660201b6200056d1760201c565b33600160006101000a81548173ffffffffffffffffffffffffffffffffffffffff021916908373ffffffffffffffffffffffffffffffffffffffff1602179055506200022a565b6200013681604051602401620000ad9190620001a3565b6040516020818303038152906040527f41304fac000000000000000000000000000000000000000000000000000000007bffffffffffffffffffffffffffffffffffffffffffffffffffffffff19166020820180517bffffffffffffffffffffffffffffffffffffffffffffffffffffffff83818316178352505050506200013960201b60201c565b50565b60008151905060006a636f6e736f6c652e6c6f679050602083016000808483855afa5050505050565b60006200016f82620001c7565b6200017b8185620001d2565b93506200018d818560208601620001e3565b620001988162000219565b840191505092915050565b60006020820190508181036000830152620001bf818462000162565b905092915050565b600081519050919050565b600082825260208201905092915050565b60005b8381101562000203578082015181840152602081019050620001e6565b8381111562000213576000848401525b50505050565b6000601f19601f8301169050919050565b610df2806200023a6000396000f3fe60806040526004361061003f5760003560e01c8063441315c5146100445780634839ee3f146100605780638da5cb5b1461008b578063d386beca146100b6575b600080fd5b61005e6004803603810190610059919061074f565b6100e1565b005b34801561006c57600080fd5b5061007561035b565b6040516100829190610b02565b60405180910390f35b34801561009757600080fd5b506100a0610364565b6040516100ad9190610a1e565b60405180910390f35b3480156100c257600080fd5b506100cb61038a565b6040516100d89190610a39565b60405180910390f35b600066038d7ea4c68000905080821015610130576040517f08c379a000000000000000000000000000000000000000000000000000000000815260040161012790610ac2565b60405180910390fd5b600160005461013f9190610bef565b600081905550600260405180608001604052803373ffffffffffffffffffffffffffffffffffffffff16815260200186815260200142815260200185815250908060018154018082558091505060019003906000526020600020906004020160009091909190915060008201518160000160006101000a81548173ffffffffffffffffffffffffffffffffffffffff021916908373ffffffffffffffffffffffffffffffffffffffff160217905550602082015181600101908051906020019061020a92919061062f565b5060408201518160020155606082015181600301908051906020019061023192919061062f565b5050506000600160009054906101000a900473ffffffffffffffffffffffffffffffffffffffff1673ffffffffffffffffffffffffffffffffffffffff168360405161027c90610a09565b60006040518083038185875af1925050503d80600081146102b9576040519150601f19603f3d011682016040523d82523d6000602084013e6102be565b606091505b5050905080610302576040517f08c379a00000000000000000000000000000000000000000000000000000000081526004016102f990610ae2565b60405180910390fd5b3373ffffffffffffffffffffffffffffffffffffffff167f1677789874c8e08f83b47819e6e20a520432bb5cfad1b0bba7ec05a4f910fad086428760405161034c93929190610a7d565b60405180910390a25050505050565b60008054905090565b600160009054906101000a900473ffffffffffffffffffffffffffffffffffffffff1681565b60606002805480602002602001604051908101604052809291908181526020016000905b8282101561056457838290600052602060002090600402016040518060800160405290816000820160009054906101000a900473ffffffffffffffffffffffffffffffffffffffff1673ffffffffffffffffffffffffffffffffffffffff1673ffffffffffffffffffffffffffffffffffffffff16815260200160018201805461043790610cd5565b80601f016020809104026020016040519081016040528092919081815260200182805461046390610cd5565b80156104b05780601f10610485576101008083540402835291602001916104b0565b820191906000526020600020905b81548152906001019060200180831161049357829003601f168201915b50505050508152602001600282015481526020016003820180546104d390610cd5565b80601f01602080910402602001604051908101604052809291908181526020018280546104ff90610cd5565b801561054c5780601f106105215761010080835404028352916020019161054c565b820191906000526020600020905b81548152906001019060200180831161052f57829003601f168201915b505050505081525050815260200190600101906103ae565b50505050905090565b610603816040516024016105819190610a5b565b6040516020818303038152906040527f41304fac000000000000000000000000000000000000000000000000000000007bffffffffffffffffffffffffffffffffffffffffffffffffffffffff19166020820180517bffffffffffffffffffffffffffffffffffffffffffffffffffffffff8381831617835250505050610606565b50565b60008151905060006a636f6e736f6c652e6c6f679050602083016000808483855afa5050505050565b82805461063b90610cd5565b90600052602060002090601f01602090048101928261065d57600085556106a4565b82601f1061067657805160ff19168380011785556106a4565b828001600101855582156106a4579182015b828111156106a3578251825591602001919060010190610688565b5b5090506106b191906106b5565b5090565b5b808211156106ce5760008160009055506001016106b6565b5090565b60006106e56106e084610b4e565b610b1d565b9050828152602081018484840111156106fd57600080fd5b610708848285610c93565b509392505050565b600082601f83011261072157600080fd5b81356107318482602086016106d2565b91505092915050565b60008135905061074981610da5565b92915050565b60008060006060848603121561076457600080fd5b600084013567ffffffffffffffff81111561077e57600080fd5b61078a86828701610710565b935050602084013567ffffffffffffffff8111156107a757600080fd5b6107b386828701610710565b92505060406107c48682870161073a565b9150509250925092565b60006107da8383610981565b905092915050565b6107eb81610c57565b82525050565b6107fa81610c45565b82525050565b600061080b82610b8e565b6108158185610bb1565b93508360208202850161082785610b7e565b8060005b85811015610863578484038952815161084485826107ce565b945061084f83610ba4565b925060208a0199505060018101905061082b565b50829750879550505050505092915050565b600061088082610b99565b61088a8185610bcd565b935061089a818560208601610ca2565b6108a381610d94565b840191505092915050565b60006108b982610b99565b6108c38185610bde565b93506108d3818560208601610ca2565b6108dc81610d94565b840191505092915050565b60006108f4601583610bde565b91507f4e6f7420656e6f7567682066756e6420706179656400000000000000000000006000830152602082019050919050565b6000610934600083610bc2565b9150600082019050919050565b600061094e601283610bde565b91507f5472616e73616374696f6e204661696c656400000000000000000000000000006000830152602082019050919050565b600060808301600083015161099960008601826107f1565b50602083015184820360208601526109b18282610875565b91505060408301516109c660408601826109eb565b50606083015184820360608601526109de8282610875565b9150508091505092915050565b6109f481610c89565b82525050565b610a0381610c89565b82525050565b6000610a1482610927565b9150819050919050565b6000602082019050610a3360008301846107e2565b92915050565b60006020820190508181036000830152610a538184610800565b905092915050565b60006020820190508181036000830152610a7581846108ae565b905092915050565b60006060820190508181036000830152610a9781866108ae565b9050610aa660208301856109fa565b8181036040830152610ab881846108ae565b9050949350505050565b60006020820190508181036000830152610adb816108e7565b9050919050565b60006020820190508181036000830152610afb81610941565b9050919050565b6000602082019050610b1760008301846109fa565b92915050565b6000604051905081810181811067ffffffffffffffff82111715610b4457610b43610d65565b5b8060405250919050565b600067ffffffffffffffff821115610b6957610b68610d65565b5b601f19601f8301169050602081019050919050565b6000819050602082019050919050565b600081519050919050565b600081519050919050565b6000602082019050919050565b600082825260208201905092915050565b600081905092915050565b600082825260208201905092915050565b600082825260208201905092915050565b6000610bfa82610c89565b9150610c0583610c89565b9250827fffffffffffffffffffffffffffffffffffffffffffffffffffffffffffffffff03821115610c3a57610c39610d07565b5b828201905092915050565b6000610c5082610c69565b9050919050565b6000610c6282610c69565b9050919050565b600073ffffffffffffffffffffffffffffffffffffffff82169050919050565b6000819050919050565b82818337600083830152505050565b60005b83811015610cc0578082015181840152602081019050610ca5565b83811115610ccf576000848401525b50505050565b60006002820490506001821680610ced57607f821691505b60208210811415610d0157610d00610d36565b5b50919050565b7f4e487b7100000000000000000000000000000000000000000000000000000000600052601160045260246000fd5b7f4e487b7100000000000000000000000000000000000000000000000000000000600052602260045260246000fd5b7f4e487b7100000000000000000000000000000000000000000000000000000000600052604160045260246000fd5b6000601f19601f8301169050919050565b610dae81610c89565b8114610db957600080fd5b5056fea26469706673582212204a43ea8164468012b653f1d0ce2ea96c1d3e847a476846c949f2564011a6591764736f6c63430008000033",
  "linkReferences": {},
  "deployedLinkReferences": {}
}